{
  "_format": "hh-sol-artifact-1",
  "contractName": "Events",
  "sourceName": "contracts/Libraries/Events.sol",
  "abi": [
    {
      "anonymous": false,
      "inputs": [
        {
          "indexed": false,
          "internalType": "address",
          "name": "message",
          "type": "address"
        }
      ],
      "name": "LogAddress",
      "type": "event"
    },
    {
      "anonymous": false,
      "inputs": [
        {
          "indexed": false,
          "internalType": "bytes",
          "name": "message",
          "type": "bytes"
        }
      ],
      "name": "LogBytes",
      "type": "event"
    },
    {
      "anonymous": false,
      "inputs": [
        {
          "indexed": false,
          "internalType": "bytes32",
          "name": "message",
          "type": "bytes32"
        }
      ],
      "name": "LogBytes32",
      "type": "event"
    },
    {
      "anonymous": false,
      "inputs": [
        {
          "indexed": false,
          "internalType": "string",
          "name": "message",
          "type": "string"
        }
      ],
      "name": "LogString",
      "type": "event"
    },
    {
      "anonymous": false,
      "inputs": [
        {
          "indexed": false,
          "internalType": "uint256",
          "name": "message",
          "type": "uint256"
        }
      ],
      "name": "LogUint",
      "type": "event"
    },
    {
      "inputs": [
        {
          "internalType": "address",
          "name": "message",
          "type": "address"
        }
      ],
      "name": "logAddress",
      "outputs": [],
      "stateMutability": "nonpayable",
      "type": "function"
    },
    {
      "inputs": [
        {
          "internalType": "bytes",
          "name": "message",
          "type": "bytes"
        }
      ],
      "name": "logBytes",
      "outputs": [],
      "stateMutability": "nonpayable",
      "type": "function"
    },
    {
      "inputs": [
        {
          "internalType": "bytes32",
          "name": "message",
          "type": "bytes32"
        }
      ],
      "name": "logBytes32",
      "outputs": [],
      "stateMutability": "nonpayable",
      "type": "function"
    },
    {
      "inputs": [
        {
          "internalType": "string",
          "name": "message",
          "type": "string"
        }
      ],
      "name": "logString",
      "outputs": [],
      "stateMutability": "nonpayable",
      "type": "function"
    },
    {
      "inputs": [
        {
          "internalType": "uint256",
          "name": "message",
          "type": "uint256"
        }
      ],
      "name": "logUint",
      "outputs": [],
      "stateMutability": "nonpayable",
      "type": "function"
    },
    {
      "inputs": [
        {
          "internalType": "uint256",
          "name": "message",
          "type": "uint256"
        }
      ],
      "name": "logUintPayable",
      "outputs": [],
      "stateMutability": "payable",
      "type": "function"
    }
  ],
  "bytecode": "0x608060405234801561001057600080fd5b506106ec806100206000396000f3fe6080604052600436106100555760003560e01c80630bb563d61461005a5780632d21d6f714610083578063360db92d146100ac5780635f91b0af146100c85780639905b744146100f1578063e17bf9561461011a575b600080fd5b34801561006657600080fd5b50610081600480360381019061007c9190610313565b610143565b005b34801561008f57600080fd5b506100aa60048036038101906100a59190610396565b610180565b005b6100c660048036038101906100c191906103f9565b6101b9565b005b3480156100d457600080fd5b506100ef60048036038101906100ea9190610484565b6101f3565b005b3480156100fd57600080fd5b50610118600480360381019061011391906103f9565b61022d565b005b34801561012657600080fd5b50610141600480360381019061013c9190610507565b610267565b005b7fa95e6e2a182411e7a6f9ed114a85c3761d87f9b8f453d842c71235aa64fff99f82826040516101749291906105b2565b60405180910390a15050565b7e9fd52f05c0ded31d6fb0ee580b923f85e99cf1a5a1da342f25e73c45829c83816040516101ae91906105e5565b60405180910390a150565b7f0ac68d08c5119b8cdb4058edbf0d4168f208ec3935d26a8f1f0d92eb9d4de8bf816040516101e8919061060f565b60405180910390a150565b7fb123f68b8ba02b447d91a6629e121111b7dd6061ff418a60139c8bf00522a284816040516102229190610639565b60405180910390a150565b7f0ac68d08c5119b8cdb4058edbf0d4168f208ec3935d26a8f1f0d92eb9d4de8bf8160405161025c919061060f565b60405180910390a150565b7f532fd6ea96cfb78bb46e09279a26828b8b493de1a2b8b1ee1face527978a15a58282604051610298929190610692565b60405180910390a15050565b600080fd5b600080fd5b600080fd5b600080fd5b600080fd5b60008083601f8401126102d3576102d26102ae565b5b8235905067ffffffffffffffff8111156102f0576102ef6102b3565b5b60208301915083600182028301111561030c5761030b6102b8565b5b9250929050565b6000806020838503121561032a576103296102a4565b5b600083013567ffffffffffffffff811115610348576103476102a9565b5b610354858286016102bd565b92509250509250929050565b6000819050919050565b61037381610360565b811461037e57600080fd5b50565b6000813590506103908161036a565b92915050565b6000602082840312156103ac576103ab6102a4565b5b60006103ba84828501610381565b91505092915050565b6000819050919050565b6103d6816103c3565b81146103e157600080fd5b50565b6000813590506103f3816103cd565b92915050565b60006020828403121561040f5761040e6102a4565b5b600061041d848285016103e4565b91505092915050565b600073ffffffffffffffffffffffffffffffffffffffff82169050919050565b600061045182610426565b9050919050565b61046181610446565b811461046c57600080fd5b50565b60008135905061047e81610458565b92915050565b60006020828403121561049a576104996102a4565b5b60006104a88482850161046f565b91505092915050565b60008083601f8401126104c7576104c66102ae565b5b8235905067ffffffffffffffff8111156104e4576104e36102b3565b5b602083019150836001820283011115610500576104ff6102b8565b5b9250929050565b6000806020838503121561051e5761051d6102a4565b5b600083013567ffffffffffffffff81111561053c5761053b6102a9565b5b610548858286016104b1565b92509250509250929050565b600082825260208201905092915050565b82818337600083830152505050565b6000601f19601f8301169050919050565b60006105918385610554565b935061059e838584610565565b6105a783610574565b840190509392505050565b600060208201905081810360008301526105cd818486610585565b90509392505050565b6105df81610360565b82525050565b60006020820190506105fa60008301846105d6565b92915050565b610609816103c3565b82525050565b60006020820190506106246000830184610600565b92915050565b61063381610446565b82525050565b600060208201905061064e600083018461062a565b92915050565b600082825260208201905092915050565b60006106718385610654565b935061067e838584610565565b61068783610574565b840190509392505050565b600060208201905081810360008301526106ad818486610665565b9050939250505056fea26469706673582212208818889414e756776cf48333509eae8120f1f964c0526ed9de5509856d6fd30b64736f6c634300080b0033",
  "linkReferences": {},
  "deployedLinkReferences": {}
}