{
  "_format": "hh-sol-artifact-1",
  "contractName": "TestableVM",
  "sourceName": "contracts/test/TestableVM.sol",
  "abi": [
    {
      "inputs": [
        {
          "internalType": "uint256",
          "name": "command_index",
          "type": "uint256"
        },
        {
          "internalType": "address",
          "name": "target",
          "type": "address"
        },
        {
          "internalType": "string",
          "name": "message",
          "type": "string"
        }
      ],
      "name": "ExecutionFailed",
      "type": "error"
    },
    {
      "inputs": [
        {
          "internalType": "bytes32[]",
          "name": "commands",
          "type": "bytes32[]"
        },
        {
          "internalType": "bytes[]",
          "name": "state",
          "type": "bytes[]"
        }
      ],
      "name": "execute",
      "outputs": [
        {
          "internalType": "bytes[]",
          "name": "",
          "type": "bytes[]"
        }
      ],
      "stateMutability": "payable",
      "type": "function"
    }
  ],
  "bytecode": "0x60a060405234801561001057600080fd5b503073ffffffffffffffffffffffffffffffffffffffff1660808173ffffffffffffffffffffffffffffffffffffffff168152505060805161164f61005d6000396000505061164f6000f3fe60806040526004361061001e5760003560e01c8063de792d5f14610023575b600080fd5b61003d60048036038101906100389190610d08565b610053565b60405161004a9190610ece565b60405180910390f35b6060610060848484610069565b90509392505050565b60606000806000806060600089899050905060005b818110156104dc578a8a8281811061009957610098610ef0565b5b905060200201359650602087901b60f81c60ff169550600060808716146100e7578a8a82806100c790610f58565b93508181106100d9576100d8610ef0565b5b905060200201359450610111565b79ffffffffffffffffffffffffffffffffffffffffffffffffffff602888901b60001c1760001b94505b60006003871614156101a7578660001c73ffffffffffffffffffffffffffffffffffffffff1661014c88878c6104ed9092919063ffffffff16565b6040516101599190610fdd565b600060405180830381855af49150503d8060008114610194576040519150601f19603f3d011682016040523d82523d6000602084013e610199565b606091505b5080945081955050506103e7565b600160038716141561023f578660001c73ffffffffffffffffffffffffffffffffffffffff166101e288878c6104ed9092919063ffffffff16565b6040516101ef9190610fdd565b6000604051808303816000865af19150503d806000811461022c576040519150601f19603f3d011682016040523d82523d6000602084013e610231565b606091505b5080945081955050506103e6565b60026003871614156102d5578660001c73ffffffffffffffffffffffffffffffffffffffff1661027a88878c6104ed9092919063ffffffff16565b6040516102879190610fdd565b600060405180830381855afa9150503d80600081146102c2576040519150601f19603f3d011682016040523d82523d6000602084013e6102c7565b606091505b5080945081955050506103e5565b600380871614156103a9576000808a8760f81c60ff16815181106102fc576102fb610ef0565b5b60200260200101519050602081015191508860001c73ffffffffffffffffffffffffffffffffffffffff168261034a8b60ff60088c901b60001c1760001b8f6104ed9092919063ffffffff16565b6040516103579190610fdd565b60006040518083038185875af1925050503d8060008114610394576040519150601f19603f3d011682016040523d82523d6000602084013e610399565b606091505b50809650819750505050506103e4565b6040517f08c379a00000000000000000000000000000000000000000000000000000000081526004016103db90611051565b60405180910390fd5b5b5b5b83610487576000835111156103fd576044830192505b60008760001c6000855111610447576040518060400160405280600781526020017f556e6b6e6f776e00000000000000000000000000000000000000000000000000815250610449565b845b6040517fef3dcb2f00000000000000000000000000000000000000000000000000000000815260040161047e9392919061113b565b60405180910390fd5b600060408716146104b0576104ab605888901b848b61085e9092919063ffffffff16565b6104cc565b6104c9605888901b848b6109149092919063ffffffff16565b98505b6104d581610a43565b905061007e565b508796505050505050509392505050565b606060008060606000805b60208110156106985786816020811061051457610513610ef0565b5b1a60f81b60f81c60ff16915060ff82141561052e57610698565b600060808316146106165760fe8214156105835760008351141561056f578860405160200161055d9190610ece565b60405160208183030381529060405292505b82518561057c9190611179565b9450610611565b600089607f84168151811061059b5761059a610ef0565b5b602002602001015151905060006020826105b591906111fe565b146105f5576040517f08c379a00000000000000000000000000000000000000000000000000000000081526004016105ec906112a1565b60405180910390fd5b6020816106029190611179565b8661060d9190611179565b9550505b610687565b602089607f84168151811061062e5761062d610ef0565b5b60200260200101515114610677576040517f08c379a000000000000000000000000000000000000000000000000000000000815260040161066e90611333565b60405180910390fd5b6020856106849190611179565b94505b6020840193508060010190506104f8565b506004846106a69190611179565b67ffffffffffffffff8111156106bf576106be610af7565b5b6040519080825280601f01601f1916602001820160405280156106f15781602001600182028036833780820191505090505b5094508660208601526000935060005b60208110156108525786816020811061071d5761071c610ef0565b5b1a60f81b60f81c60ff16915060ff82141561073757610852565b600060808316146108115760fe82141561079a57838560248801015261077a836020886004886107679190611179565b602088516107759190611353565b610a53565b602083516107889190611353565b846107939190611179565b935061080c565b600089607f8416815181106107b2576107b1610ef0565b5b602002602001015151905084866024890101526107fc8a607f8516815181106107de576107dd610ef0565b5b60200260200101516000896004896107f69190611179565b85610a53565b80856108089190611179565b9450505b610841565b600089607f84168151811061082957610828610ef0565b5b60200260200101519050602081015186602489010152505b602085019450806001019050610701565b50505050509392505050565b60008260f81c60ff16905060ff811415610878575061090f565b6000602083516108889190611179565b67ffffffffffffffff8111156108a1576108a0610af7565b5b6040519080825280601f01601f1916602001820160405280156108d35781602001600182028036833780820191505090505b508583815181106108e7576108e6610ef0565b5b6020026020010181905290506109038360008360208751610a53565b82518060208301525050505b505050565b606060008360f81c60ff16905060ff8114156109335784915050610a3c565b600060808216146109d05760fe811415610962578280602001905181019061095b91906114ac565b94506109cb565b600060208401519050602081146109ae576040517f08c379a00000000000000000000000000000000000000000000000000000000081526004016109a590611567565b60405180910390fd5b60208451036020850152602084016020607f841602602088010152505b610a37565b6020835114610a14576040517f08c379a0000000000000000000000000000000000000000000000000000000008152600401610a0b906115f9565b60405180910390fd5b8285607f831681518110610a2b57610a2a610ef0565b5b60200260200101819052505b849150505b9392505050565b6000816001019150819050919050565b808260208501018286602089010160045afa505050505050565b6000604051905090565b600080fd5b600080fd5b600080fd5b600080fd5b600080fd5b60008083601f840112610aa657610aa5610a81565b5b8235905067ffffffffffffffff811115610ac357610ac2610a86565b5b602083019150836020820283011115610adf57610ade610a8b565b5b9250929050565b6000601f19601f8301169050919050565b7f4e487b7100000000000000000000000000000000000000000000000000000000600052604160045260246000fd5b610b2f82610ae6565b810181811067ffffffffffffffff82111715610b4e57610b4d610af7565b5b80604052505050565b6000610b61610a6d565b9050610b6d8282610b26565b919050565b600067ffffffffffffffff821115610b8d57610b8c610af7565b5b602082029050602081019050919050565b600080fd5b600067ffffffffffffffff821115610bbe57610bbd610af7565b5b610bc782610ae6565b9050602081019050919050565b82818337600083830152505050565b6000610bf6610bf184610ba3565b610b57565b905082815260208101848484011115610c1257610c11610b9e565b5b610c1d848285610bd4565b509392505050565b600082601f830112610c3a57610c39610a81565b5b8135610c4a848260208601610be3565b91505092915050565b6000610c66610c6184610b72565b610b57565b90508083825260208201905060208402830185811115610c8957610c88610a8b565b5b835b81811015610cd057803567ffffffffffffffff811115610cae57610cad610a81565b5b808601610cbb8982610c25565b85526020850194505050602081019050610c8b565b5050509392505050565b600082601f830112610cef57610cee610a81565b5b8135610cff848260208601610c53565b91505092915050565b600080600060408486031215610d2157610d20610a77565b5b600084013567ffffffffffffffff811115610d3f57610d3e610a7c565b5b610d4b86828701610a90565b9350935050602084013567ffffffffffffffff811115610d6e57610d6d610a7c565b5b610d7a86828701610cda565b9150509250925092565b600081519050919050565b600082825260208201905092915050565b6000819050602082019050919050565b600081519050919050565b600082825260208201905092915050565b60005b83811015610dea578082015181840152602081019050610dcf565b83811115610df9576000848401525b50505050565b6000610e0a82610db0565b610e148185610dbb565b9350610e24818560208601610dcc565b610e2d81610ae6565b840191505092915050565b6000610e448383610dff565b905092915050565b6000602082019050919050565b6000610e6482610d84565b610e6e8185610d8f565b935083602082028501610e8085610da0565b8060005b85811015610ebc5784840389528151610e9d8582610e38565b9450610ea883610e4c565b925060208a01995050600181019050610e84565b50829750879550505050505092915050565b60006020820190508181036000830152610ee88184610e59565b905092915050565b7f4e487b7100000000000000000000000000000000000000000000000000000000600052603260045260246000fd5b7f4e487b7100000000000000000000000000000000000000000000000000000000600052601160045260246000fd5b6000819050919050565b6000610f6382610f4e565b91507fffffffffffffffffffffffffffffffffffffffffffffffffffffffffffffffff821415610f9657610f95610f1f565b5b600182019050919050565b600081905092915050565b6000610fb782610db0565b610fc18185610fa1565b9350610fd1818560208601610dcc565b80840191505092915050565b6000610fe98284610fac565b915081905092915050565b600082825260208201905092915050565b7f496e76616c69642063616c6c7479706500000000000000000000000000000000600082015250565b600061103b601083610ff4565b915061104682611005565b602082019050919050565b6000602082019050818103600083015261106a8161102e565b9050919050565b6000819050919050565b6000819050919050565b60006110a061109b61109684611071565b61107b565b610f4e565b9050919050565b6110b081611085565b82525050565b600073ffffffffffffffffffffffffffffffffffffffff82169050919050565b60006110e1826110b6565b9050919050565b6110f1816110d6565b82525050565b600081519050919050565b600061110d826110f7565b6111178185610ff4565b9350611127818560208601610dcc565b61113081610ae6565b840191505092915050565b600060608201905061115060008301866110a7565b61115d60208301856110e8565b818103604083015261116f8184611102565b9050949350505050565b600061118482610f4e565b915061118f83610f4e565b9250827fffffffffffffffffffffffffffffffffffffffffffffffffffffffffffffffff038211156111c4576111c3610f1f565b5b828201905092915050565b7f4e487b7100000000000000000000000000000000000000000000000000000000600052601260045260246000fd5b600061120982610f4e565b915061121483610f4e565b925082611224576112236111cf565b5b828206905092915050565b7f44796e616d6963207374617465207661726961626c6573206d7573742062652060008201527f61206d756c7469706c65206f6620333220627974657300000000000000000000602082015250565b600061128b603683610ff4565b91506112968261122f565b604082019050919050565b600060208201905081810360008301526112ba8161127e565b9050919050565b7f537461746963207374617465207661726961626c6573206d757374206265203360008201527f3220627974657300000000000000000000000000000000000000000000000000602082015250565b600061131d602783610ff4565b9150611328826112c1565b604082019050919050565b6000602082019050818103600083015261134c81611310565b9050919050565b600061135e82610f4e565b915061136983610f4e565b92508282101561137c5761137b610f1f565b5b828203905092915050565b600061139a61139584610ba3565b610b57565b9050828152602081018484840111156113b6576113b5610b9e565b5b6113c1848285610dcc565b509392505050565b600082601f8301126113de576113dd610a81565b5b81516113ee848260208601611387565b91505092915050565b600061140a61140584610b72565b610b57565b9050808382526020820190506020840283018581111561142d5761142c610a8b565b5b835b8181101561147457805167ffffffffffffffff81111561145257611451610a81565b5b80860161145f89826113c9565b8552602085019450505060208101905061142f565b5050509392505050565b600082601f83011261149357611492610a81565b5b81516114a38482602086016113f7565b91505092915050565b6000602082840312156114c2576114c1610a77565b5b600082015167ffffffffffffffff8111156114e0576114df610a7c565b5b6114ec8482850161147e565b91505092915050565b7f4f6e6c79206f6e652072657475726e2076616c7565207065726d69747465642060008201527f287661726961626c652900000000000000000000000000000000000000000000602082015250565b6000611551602a83610ff4565b915061155c826114f5565b604082019050919050565b6000602082019050818103600083015261158081611544565b9050919050565b7f4f6e6c79206f6e652072657475726e2076616c7565207065726d69747465642060008201527f2873746174696329000000000000000000000000000000000000000000000000602082015250565b60006115e3602883610ff4565b91506115ee82611587565b604082019050919050565b60006020820190508181036000830152611612816115d6565b905091905056fea26469706673582212200a4b68d076fb5635659f29f9f06be85fc72b358efeb1146902c01f9cd43b7ab164736f6c634300080b0033",
  "linkReferences": {},
  "deployedLinkReferences": {}
}