{
  "_format": "hh-sol-artifact-1",
  "contractName": "MultiReturn",
  "sourceName": "contracts/test/MultiReturn.sol",
  "abi": [
    {
      "anonymous": false,
      "inputs": [
        {
          "indexed": false,
          "internalType": "uint256",
          "name": "j",
          "type": "uint256"
        }
      ],
      "name": "Calculated",
      "type": "event"
    },
    {
      "inputs": [],
      "name": "intTuple",
      "outputs": [
        {
          "internalType": "uint256",
          "name": "",
          "type": "uint256"
        },
        {
          "internalType": "uint256",
          "name": "",
          "type": "uint256"
        },
        {
          "internalType": "uint256",
          "name": "",
          "type": "uint256"
        }
      ],
      "stateMutability": "pure",
      "type": "function"
    },
    {
      "inputs": [
        {
          "internalType": "uint256",
          "name": "arg",
          "type": "uint256"
        }
      ],
      "name": "tupleConsumer",
      "outputs": [],
      "stateMutability": "nonpayable",
      "type": "function"
    }
  ],
  "bytecode": "0x608060405234801561001057600080fd5b506101c9806100206000396000f3fe608060405234801561001057600080fd5b50600436106100365760003560e01c806338271fbf1461003b5780635bd54e4214610057575b600080fd5b61005560048036038101906100509190610105565b610077565b005b61005f6100b1565b60405161006e93929190610141565b60405180910390f35b7f2c257d436c72ddfcf6860baf0bde6e7deca235585f3cd5a7e1da579a04c98ab1816040516100a69190610178565b60405180910390a150565b6000806000610bad61deed61cafe925092509250909192565b600080fd5b6000819050919050565b6100e2816100cf565b81146100ed57600080fd5b50565b6000813590506100ff816100d9565b92915050565b60006020828403121561011b5761011a6100ca565b5b6000610129848285016100f0565b91505092915050565b61013b816100cf565b82525050565b60006060820190506101566000830186610132565b6101636020830185610132565b6101706040830184610132565b949350505050565b600060208201905061018d6000830184610132565b9291505056fea2646970667358221220c8af908a1f4456be72c79ce8cd6edba3167fa6da700c390cf58c63bafce7243864736f6c634300080b0033",
  "linkReferences": {},
  "deployedLinkReferences": {}
}