{
  "_format": "hh-sol-artifact-1",
  "contractName": "CommandBuilderHarness",
  "sourceName": "contracts/test/CommandBuilderHarness.sol",
  "abi": [
    {
      "inputs": [],
      "name": "basecall",
      "outputs": [],
      "stateMutability": "pure",
      "type": "function"
    },
    {
      "inputs": [
        {
          "internalType": "bytes[]",
          "name": "state",
          "type": "bytes[]"
        },
        {
          "internalType": "bytes4",
          "name": "selector",
          "type": "bytes4"
        },
        {
          "internalType": "bytes32",
          "name": "indices",
          "type": "bytes32"
        }
      ],
      "name": "testBuildInputs",
      "outputs": [
        {
          "internalType": "bytes",
          "name": "",
          "type": "bytes"
        }
      ],
      "stateMutability": "view",
      "type": "function"
    },
    {
      "inputs": [
        {
          "internalType": "bytes[]",
          "name": "state",
          "type": "bytes[]"
        },
        {
          "internalType": "bytes4",
          "name": "selector",
          "type": "bytes4"
        },
        {
          "internalType": "bytes32",
          "name": "indices",
          "type": "bytes32"
        }
      ],
      "name": "testBuildInputsBaseGas",
      "outputs": [
        {
          "internalType": "bytes",
          "name": "out",
          "type": "bytes"
        }
      ],
      "stateMutability": "view",
      "type": "function"
    },
    {
      "inputs": [
        {
          "internalType": "bytes[]",
          "name": "state",
          "type": "bytes[]"
        },
        {
          "internalType": "bytes1",
          "name": "index",
          "type": "bytes1"
        },
        {
          "internalType": "bytes",
          "name": "output",
          "type": "bytes"
        }
      ],
      "name": "testWriteOutputs",
      "outputs": [
        {
          "internalType": "bytes[]",
          "name": "",
          "type": "bytes[]"
        },
        {
          "internalType": "bytes",
          "name": "",
          "type": "bytes"
        }
      ],
      "stateMutability": "pure",
      "type": "function"
    },
    {
      "inputs": [
        {
          "internalType": "bytes[]",
          "name": "state",
          "type": "bytes[]"
        },
        {
          "internalType": "bytes1",
          "name": "index",
          "type": "bytes1"
        },
        {
          "internalType": "bytes",
          "name": "output",
          "type": "bytes"
        }
      ],
      "name": "testWriteOutputsBaseGas",
      "outputs": [
        {
          "internalType": "bytes[]",
          "name": "",
          "type": "bytes[]"
        },
        {
          "internalType": "bytes",
          "name": "",
          "type": "bytes"
        }
      ],
      "stateMutability": "pure",
      "type": "function"
    }
  ],
  "bytecode": "0x608060405234801561001057600080fd5b50611217806100206000396000f3fe608060405234801561001057600080fd5b50600436106100575760003560e01c8063171f98cb1461005c5780637f1803211461008d5780637ff6f34f146100be578063a402609a146100ee578063edff49f71461011e575b600080fd5b61007660048036038101906100719190610931565b610128565b604051610084929190610b50565b60405180910390f35b6100a760048036038101906100a29190610931565b610150565b6040516100b5929190610b50565b60405180910390f35b6100d860048036038101906100d39190610c15565b6101ae565b6040516100e59190610c84565b60405180910390f35b61010860048036038101906101039190610c15565b6101d4565b6040516101159190610c84565b60405180910390f35b6101266101dd565b005b6060806101408484876101df9092919063ffffffff16565b9450848391509150935093915050565b60608084602067ffffffffffffffff81111561016f5761016e6106c3565b5b6040519080825280601f01601f1916602001820160405280156101a15781602001600182028036833780820191505090505b5091509150935093915050565b606060006101c784848761030e9092919063ffffffff16565b9050809150509392505050565b60609392505050565b565b606060008360f81c60ff16905060ff8114156101fe5784915050610307565b6000608082161461029b5760fe81141561022d57828060200190518101906102269190610dcb565b9450610296565b60006020840151905060208114610279576040517f08c379a000000000000000000000000000000000000000000000000000000000815260040161027090610e97565b60405180910390fd5b60208451036020850152602084016020607f841602602088010152505b610302565b60208351146102df576040517f08c379a00000000000000000000000000000000000000000000000000000000081526004016102d690610f29565b60405180910390fd5b8285607f8316815181106102f6576102f5610f49565b5b60200260200101819052505b849150505b9392505050565b606060008060606000805b60208110156104b95786816020811061033557610334610f49565b5b1a60f81b60f81c60ff16915060ff82141561034f576104b9565b600060808316146104375760fe8214156103a457600083511415610390578860405160200161037e9190610f78565b60405160208183030381529060405292505b82518561039d9190610fd3565b9450610432565b600089607f8416815181106103bc576103bb610f49565b5b602002602001015151905060006020826103d69190611058565b14610416576040517f08c379a000000000000000000000000000000000000000000000000000000000815260040161040d906110fb565b60405180910390fd5b6020816104239190610fd3565b8661042e9190610fd3565b9550505b6104a8565b602089607f84168151811061044f5761044e610f49565b5b60200260200101515114610498576040517f08c379a000000000000000000000000000000000000000000000000000000000815260040161048f9061118d565b60405180910390fd5b6020856104a59190610fd3565b94505b602084019350806001019050610319565b506004846104c79190610fd3565b67ffffffffffffffff8111156104e0576104df6106c3565b5b6040519080825280601f01601f1916602001820160405280156105125781602001600182028036833780820191505090505b5094508660208601526000935060005b60208110156106735786816020811061053e5761053d610f49565b5b1a60f81b60f81c60ff16915060ff82141561055857610673565b600060808316146106325760fe8214156105bb57838560248801015261059b836020886004886105889190610fd3565b6020885161059691906111ad565b61067f565b602083516105a991906111ad565b846105b49190610fd3565b935061062d565b600089607f8416815181106105d3576105d2610f49565b5b6020026020010151519050848660248901015261061d8a607f8516815181106105ff576105fe610f49565b5b60200260200101516000896004896106179190610fd3565b8561067f565b80856106299190610fd3565b9450505b610662565b600089607f84168151811061064a57610649610f49565b5b60200260200101519050602081015186602489010152505b602085019450806001019050610522565b50505050509392505050565b808260208501018286602089010160045afa505050505050565b6000604051905090565b600080fd5b600080fd5b600080fd5b6000601f19601f8301169050919050565b7f4e487b7100000000000000000000000000000000000000000000000000000000600052604160045260246000fd5b6106fb826106b2565b810181811067ffffffffffffffff8211171561071a576107196106c3565b5b80604052505050565b600061072d610699565b905061073982826106f2565b919050565b600067ffffffffffffffff821115610759576107586106c3565b5b602082029050602081019050919050565b600080fd5b600080fd5b600067ffffffffffffffff82111561078f5761078e6106c3565b5b610798826106b2565b9050602081019050919050565b82818337600083830152505050565b60006107c76107c284610774565b610723565b9050828152602081018484840111156107e3576107e261076f565b5b6107ee8482856107a5565b509392505050565b600082601f83011261080b5761080a6106ad565b5b813561081b8482602086016107b4565b91505092915050565b60006108376108328461073e565b610723565b9050808382526020820190506020840283018581111561085a5761085961076a565b5b835b818110156108a157803567ffffffffffffffff81111561087f5761087e6106ad565b5b80860161088c89826107f6565b8552602085019450505060208101905061085c565b5050509392505050565b600082601f8301126108c0576108bf6106ad565b5b81356108d0848260208601610824565b91505092915050565b60007fff0000000000000000000000000000000000000000000000000000000000000082169050919050565b61090e816108d9565b811461091957600080fd5b50565b60008135905061092b81610905565b92915050565b60008060006060848603121561094a576109496106a3565b5b600084013567ffffffffffffffff811115610968576109676106a8565b5b610974868287016108ab565b93505060206109858682870161091c565b925050604084013567ffffffffffffffff8111156109a6576109a56106a8565b5b6109b2868287016107f6565b9150509250925092565b600081519050919050565b600082825260208201905092915050565b6000819050602082019050919050565b600081519050919050565b600082825260208201905092915050565b60005b83811015610a22578082015181840152602081019050610a07565b83811115610a31576000848401525b50505050565b6000610a42826109e8565b610a4c81856109f3565b9350610a5c818560208601610a04565b610a65816106b2565b840191505092915050565b6000610a7c8383610a37565b905092915050565b6000602082019050919050565b6000610a9c826109bc565b610aa681856109c7565b935083602082028501610ab8856109d8565b8060005b85811015610af45784840389528151610ad58582610a70565b9450610ae083610a84565b925060208a01995050600181019050610abc565b50829750879550505050505092915050565b600082825260208201905092915050565b6000610b22826109e8565b610b2c8185610b06565b9350610b3c818560208601610a04565b610b45816106b2565b840191505092915050565b60006040820190508181036000830152610b6a8185610a91565b90508181036020830152610b7e8184610b17565b90509392505050565b60007fffffffff0000000000000000000000000000000000000000000000000000000082169050919050565b610bbc81610b87565b8114610bc757600080fd5b50565b600081359050610bd981610bb3565b92915050565b6000819050919050565b610bf281610bdf565b8114610bfd57600080fd5b50565b600081359050610c0f81610be9565b92915050565b600080600060608486031215610c2e57610c2d6106a3565b5b600084013567ffffffffffffffff811115610c4c57610c4b6106a8565b5b610c58868287016108ab565b9350506020610c6986828701610bca565b9250506040610c7a86828701610c00565b9150509250925092565b60006020820190508181036000830152610c9e8184610b17565b905092915050565b6000610cb9610cb484610774565b610723565b905082815260208101848484011115610cd557610cd461076f565b5b610ce0848285610a04565b509392505050565b600082601f830112610cfd57610cfc6106ad565b5b8151610d0d848260208601610ca6565b91505092915050565b6000610d29610d248461073e565b610723565b90508083825260208201905060208402830185811115610d4c57610d4b61076a565b5b835b81811015610d9357805167ffffffffffffffff811115610d7157610d706106ad565b5b808601610d7e8982610ce8565b85526020850194505050602081019050610d4e565b5050509392505050565b600082601f830112610db257610db16106ad565b5b8151610dc2848260208601610d16565b91505092915050565b600060208284031215610de157610de06106a3565b5b600082015167ffffffffffffffff811115610dff57610dfe6106a8565b5b610e0b84828501610d9d565b91505092915050565b600082825260208201905092915050565b7f4f6e6c79206f6e652072657475726e2076616c7565207065726d69747465642060008201527f287661726961626c652900000000000000000000000000000000000000000000602082015250565b6000610e81602a83610e14565b9150610e8c82610e25565b604082019050919050565b60006020820190508181036000830152610eb081610e74565b9050919050565b7f4f6e6c79206f6e652072657475726e2076616c7565207065726d69747465642060008201527f2873746174696329000000000000000000000000000000000000000000000000602082015250565b6000610f13602883610e14565b9150610f1e82610eb7565b604082019050919050565b60006020820190508181036000830152610f4281610f06565b9050919050565b7f4e487b7100000000000000000000000000000000000000000000000000000000600052603260045260246000fd5b60006020820190508181036000830152610f928184610a91565b905092915050565b6000819050919050565b7f4e487b7100000000000000000000000000000000000000000000000000000000600052601160045260246000fd5b6000610fde82610f9a565b9150610fe983610f9a565b9250827fffffffffffffffffffffffffffffffffffffffffffffffffffffffffffffffff0382111561101e5761101d610fa4565b5b828201905092915050565b7f4e487b7100000000000000000000000000000000000000000000000000000000600052601260045260246000fd5b600061106382610f9a565b915061106e83610f9a565b92508261107e5761107d611029565b5b828206905092915050565b7f44796e616d6963207374617465207661726961626c6573206d7573742062652060008201527f61206d756c7469706c65206f6620333220627974657300000000000000000000602082015250565b60006110e5603683610e14565b91506110f082611089565b604082019050919050565b60006020820190508181036000830152611114816110d8565b9050919050565b7f537461746963207374617465207661726961626c6573206d757374206265203360008201527f3220627974657300000000000000000000000000000000000000000000000000602082015250565b6000611177602783610e14565b91506111828261111b565b604082019050919050565b600060208201905081810360008301526111a68161116a565b9050919050565b60006111b882610f9a565b91506111c383610f9a565b9250828210156111d6576111d5610fa4565b5b82820390509291505056fea26469706673582212204f293563fee6f7d3a0233f87b968db1b093712580f09bc071ac7f746052ebcc264736f6c634300080b0033",
  "linkReferences": {},
  "deployedLinkReferences": {}
}