{
  "_format": "hh-sol-artifact-1",
  "contractName": "Math",
  "sourceName": "contracts/Libraries/Math.sol",
  "abi": [
    {
      "inputs": [
        {
          "internalType": "uint256",
          "name": "a",
          "type": "uint256"
        },
        {
          "internalType": "uint256",
          "name": "b",
          "type": "uint256"
        }
      ],
      "name": "add",
      "outputs": [
        {
          "internalType": "uint256",
          "name": "",
          "type": "uint256"
        }
      ],
      "stateMutability": "pure",
      "type": "function"
    },
    {
      "inputs": [
        {
          "internalType": "uint256",
          "name": "a",
          "type": "uint256"
        },
        {
          "internalType": "uint256",
          "name": "b",
          "type": "uint256"
        }
      ],
      "name": "mul",
      "outputs": [
        {
          "internalType": "uint256",
          "name": "",
          "type": "uint256"
        }
      ],
      "stateMutability": "pure",
      "type": "function"
    },
    {
      "inputs": [
        {
          "internalType": "uint256",
          "name": "a",
          "type": "uint256"
        },
        {
          "internalType": "uint256",
          "name": "b",
          "type": "uint256"
        }
      ],
      "name": "sub",
      "outputs": [
        {
          "internalType": "uint256",
          "name": "",
          "type": "uint256"
        }
      ],
      "stateMutability": "pure",
      "type": "function"
    },
    {
      "inputs": [
        {
          "internalType": "uint256[]",
          "name": "values",
          "type": "uint256[]"
        }
      ],
      "name": "sum",
      "outputs": [
        {
          "internalType": "uint256",
          "name": "ret",
          "type": "uint256"
        }
      ],
      "stateMutability": "pure",
      "type": "function"
    }
  ],
  "bytecode": "0x608060405234801561001057600080fd5b506104c4806100206000396000f3fe608060405234801561001057600080fd5b506004361061004c5760003560e01c80630194db8e14610051578063771602f714610081578063b67d77c5146100b1578063c8a4ac9c146100e1575b600080fd5b61006b60048036038101906100669190610216565b610111565b604051610078919061027c565b60405180910390f35b61009b600480360381019061009691906102c3565b610165565b6040516100a8919061027c565b60405180910390f35b6100cb60048036038101906100c691906102c3565b61017b565b6040516100d8919061027c565b60405180910390f35b6100fb60048036038101906100f691906102c3565b610191565b604051610108919061027c565b60405180910390f35b60008083839050905060005b8181101561015d5784848281811061013857610137610303565b5b905060200201358361014a9190610361565b925080610156906103b7565b905061011d565b505092915050565b600081836101739190610361565b905092915050565b600081836101899190610400565b905092915050565b6000818361019f9190610434565b905092915050565b600080fd5b600080fd5b600080fd5b600080fd5b600080fd5b60008083601f8401126101d6576101d56101b1565b5b8235905067ffffffffffffffff8111156101f3576101f26101b6565b5b60208301915083602082028301111561020f5761020e6101bb565b5b9250929050565b6000806020838503121561022d5761022c6101a7565b5b600083013567ffffffffffffffff81111561024b5761024a6101ac565b5b610257858286016101c0565b92509250509250929050565b6000819050919050565b61027681610263565b82525050565b6000602082019050610291600083018461026d565b92915050565b6102a081610263565b81146102ab57600080fd5b50565b6000813590506102bd81610297565b92915050565b600080604083850312156102da576102d96101a7565b5b60006102e8858286016102ae565b92505060206102f9858286016102ae565b9150509250929050565b7f4e487b7100000000000000000000000000000000000000000000000000000000600052603260045260246000fd5b7f4e487b7100000000000000000000000000000000000000000000000000000000600052601160045260246000fd5b600061036c82610263565b915061037783610263565b9250827fffffffffffffffffffffffffffffffffffffffffffffffffffffffffffffffff038211156103ac576103ab610332565b5b828201905092915050565b60006103c282610263565b91507fffffffffffffffffffffffffffffffffffffffffffffffffffffffffffffffff8214156103f5576103f4610332565b5b600182019050919050565b600061040b82610263565b915061041683610263565b92508282101561042957610428610332565b5b828203905092915050565b600061043f82610263565b915061044a83610263565b9250817fffffffffffffffffffffffffffffffffffffffffffffffffffffffffffffffff048311821515161561048357610482610332565b5b82820290509291505056fea2646970667358221220f5b7daedad068fe6cb89b2b72acd1a036bb2e201ff8f0b4852d5aab2bd31535464736f6c634300080b0033",
  "linkReferences": {},
  "deployedLinkReferences": {}
}