{
  "_format": "hh-sol-artifact-1",
  "contractName": "StateTest",
  "sourceName": "contracts/test/StateTest.sol",
  "abi": [
    {
      "inputs": [
        {
          "internalType": "uint256",
          "name": "dest",
          "type": "uint256"
        },
        {
          "internalType": "uint256",
          "name": "src",
          "type": "uint256"
        },
        {
          "internalType": "uint256",
          "name": "src2",
          "type": "uint256"
        },
        {
          "internalType": "bytes[]",
          "name": "state",
          "type": "bytes[]"
        }
      ],
      "name": "addSlots",
      "outputs": [
        {
          "internalType": "bytes[]",
          "name": "",
          "type": "bytes[]"
        }
      ],
      "stateMutability": "pure",
      "type": "function"
    }
  ],
  "bytecode": "0x608060405234801561001057600080fd5b506106cb806100206000396000f3fe608060405234801561001057600080fd5b506004361061002b5760003560e01c8063d2f7de8014610030575b600080fd5b61004a60048036038101906100459190610386565b610060565b6040516100579190610553565b60405180910390f35b606081838151811061007557610074610575565b5b602002602001015180602001905181019061009091906105b9565b8285815181106100a3576100a2610575565b5b60200260200101518060200190518101906100be91906105b9565b6100c89190610615565b6040516020016100d8919061067a565b6040516020818303038152906040528286815181106100fa576100f9610575565b5b6020026020010181905250819050949350505050565b6000604051905090565b600080fd5b600080fd5b6000819050919050565b61013781610124565b811461014257600080fd5b50565b6000813590506101548161012e565b92915050565b600080fd5b6000601f19601f8301169050919050565b7f4e487b7100000000000000000000000000000000000000000000000000000000600052604160045260246000fd5b6101a88261015f565b810181811067ffffffffffffffff821117156101c7576101c6610170565b5b80604052505050565b60006101da610110565b90506101e6828261019f565b919050565b600067ffffffffffffffff82111561020657610205610170565b5b602082029050602081019050919050565b600080fd5b600080fd5b600067ffffffffffffffff82111561023c5761023b610170565b5b6102458261015f565b9050602081019050919050565b82818337600083830152505050565b600061027461026f84610221565b6101d0565b9050828152602081018484840111156102905761028f61021c565b5b61029b848285610252565b509392505050565b600082601f8301126102b8576102b761015a565b5b81356102c8848260208601610261565b91505092915050565b60006102e46102df846101eb565b6101d0565b9050808382526020820190506020840283018581111561030757610306610217565b5b835b8181101561034e57803567ffffffffffffffff81111561032c5761032b61015a565b5b80860161033989826102a3565b85526020850194505050602081019050610309565b5050509392505050565b600082601f83011261036d5761036c61015a565b5b813561037d8482602086016102d1565b91505092915050565b600080600080608085870312156103a05761039f61011a565b5b60006103ae87828801610145565b94505060206103bf87828801610145565b93505060406103d087828801610145565b925050606085013567ffffffffffffffff8111156103f1576103f061011f565b5b6103fd87828801610358565b91505092959194509250565b600081519050919050565b600082825260208201905092915050565b6000819050602082019050919050565b600081519050919050565b600082825260208201905092915050565b60005b8381101561046f578082015181840152602081019050610454565b8381111561047e576000848401525b50505050565b600061048f82610435565b6104998185610440565b93506104a9818560208601610451565b6104b28161015f565b840191505092915050565b60006104c98383610484565b905092915050565b6000602082019050919050565b60006104e982610409565b6104f38185610414565b93508360208202850161050585610425565b8060005b85811015610541578484038952815161052285826104bd565b945061052d836104d1565b925060208a01995050600181019050610509565b50829750879550505050505092915050565b6000602082019050818103600083015261056d81846104de565b905092915050565b7f4e487b7100000000000000000000000000000000000000000000000000000000600052603260045260246000fd5b6000815190506105b38161012e565b92915050565b6000602082840312156105cf576105ce61011a565b5b60006105dd848285016105a4565b91505092915050565b7f4e487b7100000000000000000000000000000000000000000000000000000000600052601160045260246000fd5b600061062082610124565b915061062b83610124565b9250827fffffffffffffffffffffffffffffffffffffffffffffffffffffffffffffffff038211156106605761065f6105e6565b5b828201905092915050565b61067481610124565b82525050565b600060208201905061068f600083018461066b565b9291505056fea2646970667358221220a010e4880e2d08ac52d4c4fd3f83699e0d13f4cae00ad25e48340475fdd2a32464736f6c634300080b0033",
  "linkReferences": {},
  "deployedLinkReferences": {}
}