{
  "_format": "hh-sol-artifact-1",
  "contractName": "Revert",
  "sourceName": "contracts/test/Revert.sol",
  "abi": [
    {
      "inputs": [],
      "name": "fail",
      "outputs": [],
      "stateMutability": "pure",
      "type": "function"
    }
  ],
  "bytecode": "0x608060405234801561001057600080fd5b50610122806100206000396000f3fe6080604052348015600f57600080fd5b506004361060285760003560e01c8063a9cc471814602d575b600080fd5b60336035565b005b60006073576040517f08c379a0000000000000000000000000000000000000000000000000000000008152600401606a9060ce565b60405180910390fd5b565b600082825260208201905092915050565b7f48656c6c6f20576f726c64210000000000000000000000000000000000000000600082015250565b600060ba600c836075565b915060c3826086565b602082019050919050565b6000602082019050818103600083015260e58160af565b905091905056fea2646970667358221220fb8cb8dd61793cacfdef8ef1ff019f91c23d8991b0359e307accfd77f4678ff464736f6c634300080b0033",
  "linkReferences": {},
  "deployedLinkReferences": {}
}