{
  "_format": "hh-sol-artifact-1",
  "contractName": "Strings",
  "sourceName": "contracts/Libraries/Strings.sol",
  "abi": [
    {
      "inputs": [
        {
          "internalType": "string",
          "name": "a",
          "type": "string"
        },
        {
          "internalType": "string",
          "name": "b",
          "type": "string"
        }
      ],
      "name": "strcat",
      "outputs": [
        {
          "internalType": "string",
          "name": "",
          "type": "string"
        }
      ],
      "stateMutability": "pure",
      "type": "function"
    },
    {
      "inputs": [
        {
          "internalType": "string",
          "name": "x",
          "type": "string"
        }
      ],
      "name": "strlen",
      "outputs": [
        {
          "internalType": "uint256",
          "name": "",
          "type": "uint256"
        }
      ],
      "stateMutability": "pure",
      "type": "function"
    }
  ],
  "bytecode": "0x608060405234801561001057600080fd5b506103a4806100206000396000f3fe608060405234801561001057600080fd5b50600436106100365760003560e01c8063367bbd781461003b578063d824ccf31461006b575b600080fd5b6100556004803603810190610050919061014a565b61009b565b60405161006291906101b0565b60405180910390f35b610085600480360381019061008091906101cb565b6100a9565b60405161009291906102e5565b60405180910390f35b600082829050905092915050565b6060848484846040516020016100c29493929190610346565b6040516020818303038152906040529050949350505050565b600080fd5b600080fd5b600080fd5b600080fd5b600080fd5b60008083601f84011261010a576101096100e5565b5b8235905067ffffffffffffffff811115610127576101266100ea565b5b602083019150836001820283011115610143576101426100ef565b5b9250929050565b60008060208385031215610161576101606100db565b5b600083013567ffffffffffffffff81111561017f5761017e6100e0565b5b61018b858286016100f4565b92509250509250929050565b6000819050919050565b6101aa81610197565b82525050565b60006020820190506101c560008301846101a1565b92915050565b600080600080604085870312156101e5576101e46100db565b5b600085013567ffffffffffffffff811115610203576102026100e0565b5b61020f878288016100f4565b9450945050602085013567ffffffffffffffff811115610232576102316100e0565b5b61023e878288016100f4565b925092505092959194509250565b600081519050919050565b600082825260208201905092915050565b60005b8381101561028657808201518184015260208101905061026b565b83811115610295576000848401525b50505050565b6000601f19601f8301169050919050565b60006102b78261024c565b6102c18185610257565b93506102d1818560208601610268565b6102da8161029b565b840191505092915050565b600060208201905081810360008301526102ff81846102ac565b905092915050565b600081905092915050565b82818337600083830152505050565b600061032d8385610307565b935061033a838584610312565b82840190509392505050565b6000610353828688610321565b9150610360828486610321565b91508190509594505050505056fea26469706673582212205e520509183b8a31098e8eec65c53982643f51428568f47816ef7061aad15fae64736f6c634300080b0033",
  "linkReferences": {},
  "deployedLinkReferences": {}
}