{
  "_format": "hh-sol-artifact-1",
  "contractName": "Sender",
  "sourceName": "contracts/test/Sender.sol",
  "abi": [
    {
      "inputs": [],
      "name": "sender",
      "outputs": [
        {
          "internalType": "address",
          "name": "",
          "type": "address"
        }
      ],
      "stateMutability": "view",
      "type": "function"
    }
  ],
  "bytecode": "0x608060405234801561001057600080fd5b5060db8061001f6000396000f3fe6080604052348015600f57600080fd5b506004361060285760003560e01c806367e404ce14602d575b600080fd5b60336047565b604051603e9190608c565b60405180910390f35b600033905090565b600073ffffffffffffffffffffffffffffffffffffffff82169050919050565b6000607882604f565b9050919050565b608681606f565b82525050565b6000602082019050609f6000830184607f565b9291505056fea2646970667358221220333ed98c419aedbf3a82df36dc1a484439f4fa4e84fb55d2819b06a938661bcc64736f6c634300080b0033",
  "linkReferences": {},
  "deployedLinkReferences": {}
}