{
  "_format": "hh-sol-artifact-1",
  "contractName": "LibTupler",
  "sourceName": "contracts/Libraries/Tupler.sol",
  "abi": [
    {
      "inputs": [
        {
          "internalType": "bytes",
          "name": "tuple",
          "type": "bytes"
        },
        {
          "internalType": "uint256",
          "name": "index",
          "type": "uint256"
        }
      ],
      "name": "extractElement",
      "outputs": [
        {
          "internalType": "bytes32",
          "name": "",
          "type": "bytes32"
        }
      ],
      "stateMutability": "pure",
      "type": "function"
    }
  ],
  "bytecode": "0x608060405234801561001057600080fd5b506102c4806100206000396000f3fe608060405234801561001057600080fd5b506004361061002b5760003560e01c80639bd3b22714610030575b600080fd5b61004a600480360381019061004591906101fe565b610060565b6040516100579190610273565b60405180910390f35b600060208060018401028401f35b6000604051905090565b600080fd5b600080fd5b600080fd5b600080fd5b6000601f19601f8301169050919050565b7f4e487b7100000000000000000000000000000000000000000000000000000000600052604160045260246000fd5b6100d58261008c565b810181811067ffffffffffffffff821117156100f4576100f361009d565b5b80604052505050565b600061010761006e565b905061011382826100cc565b919050565b600067ffffffffffffffff8211156101335761013261009d565b5b61013c8261008c565b9050602081019050919050565b82818337600083830152505050565b600061016b61016684610118565b6100fd565b90508281526020810184848401111561018757610186610087565b5b610192848285610149565b509392505050565b600082601f8301126101af576101ae610082565b5b81356101bf848260208601610158565b91505092915050565b6000819050919050565b6101db816101c8565b81146101e657600080fd5b50565b6000813590506101f8816101d2565b92915050565b6000806040838503121561021557610214610078565b5b600083013567ffffffffffffffff8111156102335761023261007d565b5b61023f8582860161019a565b9250506020610250858286016101e9565b9150509250929050565b6000819050919050565b61026d8161025a565b82525050565b60006020820190506102886000830184610264565b9291505056fea26469706673582212208e7a3303bb1bf7b3e1e7f3d575f4088d847c21550ad5f0f70c8f04f55fe8ed0f64736f6c634300080b0033",
  "linkReferences": {},
  "deployedLinkReferences": {}
}